:030000000209B939
:0C09B900787FE4F6D8FD75817C020A000E
:0F0E61007D1C7C08ED1D70011C144C70F7DFF137
:010E7000225F
:0D0E8100EF75F005A4FE7FC8120E61DEF9CA
:010E8E002241
:070D730002640000016600AC
:03000B00020A45A1
:100A4500C0E0C0F0C083C082C0D075D000C000C077
:0D0A550001C002C003C004C005C006C007F8
:100A62000565E56570020564FFAE64E4FCFD7B0A82
:100A7200FAF9F8D31201D4502575640075650005A2
:100A820068E56870020567AE67FFE4FCFD7BFF7AEC
:100A9200FFF8C31201BE500675670075680005664F
:0A0AA200E566D39401400375660079
:100AAC00D007D006D005D004D003D002D001D0009E
:0B0ABC00D0D0D082D083D0F0D0E03248
:03001B0002001AC6
:01001A0032B3
:100D9400752901752A01752B01E4F52CF52D752EA5
:100DA400F5752F74753001FB7A007929FF0205DF90
:1005DF00AD07EDD3940240037F0122ED60030206C5
:1005EF006DC28C900002120057B40104D2A9800290
:1005FF00C2A9900001120057B40104D2B98002C2FF
:10060F00B912003EFED3940340037F0222E58954C2
:10061F00FC4EF589900003120057FFB40103538E6F
:10062F007FEF7003438E805389F04389019000045C
:10063F00120057B40105438F018003538FFE9000C2
:10064F00051200B8E5F0F58C9000051200B8F58A98
:10065F00900007120057B40102D28C7F0022ED6484
:10066F000160030206F8C28E900002120057B40117
:10067F0004D2AB8002C2AB900001120057B4010448
:10068F00D2BB8002C2BB12003EFEC3940340037F65
:10069F000222E58954CF4EF589900003120057FFCF
:1006AF00B40103538EBFEF7003438E40EFB40205C6
:1006BF0043894080035389BF900004120057B4014F
:1006CF0005438F028003538FFD9000051200B8E59C
:1006DF00F0F58D9000051200B8F58B900007120011
:1006EF0057B40102D28E7F0022ED64027074538ED4
:1006FF00EF900002120057B4010543AF048003537B
:10070F00AFFB900003120057FED3940240037F0209
:10071F0022EEB40103538EFB9000031200577003B7
:10072F00438E04900003120057B40205438E0880D5
:10073F0003538EF7900004120057B40105438F0442
:10074F008003538FFB9000051200B8FDACF0ECF561
:10075F00CD8DCC900007120057B40103438E107F4C
:05076F0000227F0222C0
:0C000E00E568120084900001ED020096ED
:100E390012003EFFC3E5689FFFE5679400FE7C0052
:060E49007D0A12022822BE
:08000300E4F567F568020084D2
:100DD2007544007543C27542017541007598DA7514
:0C0DE2008920758BF9758DF9D28ED2AC8A
:010DEE0022E2
:060446008B5D8A5E895FF8
:10044C00EF640160030205DE753101F532F533F519
:10045C0034F535F536F5377F80900080E4F0A3DF76
:10046C00FC7F80900000E4F0A3DFFCAB5DAA5EA9EA
:10047C005F12003ED394C040037F022290000A1208
:10048C000057B40104D2BC8002C2BC12003EFFE58E
:10049C0098543F4FF598EF64C06008EF64406003D8
:1004AC000205639000021201F87F307EFF7D667CAE
:1004BC000012012C8F638E628D618C60E4FFFE7DD7
:1004CC0001FCAB63AA62A961A860C31201D440030A
:1004DC007F0222C3E49563F563E49562F5627401CF
:1004EC009561F561E49560F560AB5DAA5EA95F90DE
:1004FC000001120057FB6401702CC28E538EFE5308
:10050C0089BF5389CF438E40AF63AE62AD61AC609F
:10051C0078081201E58F8D85638BC2AB5389BF536D
:10052C008FFDD28E8065EB64027029538EEF438E63
:10053C0001538EF7438E04AF63AE62AD61AC60784D
:10054C00081201E58FCD8563CC53AFFB538EF74377
:10055C008E1080377F0222AB5DAA5EA95F12003E2F
:10056C00FF7013900008120057B40105438E2080D1
:10057C001A538EDF8015EFB48011900008120057CB
:10058C00B40105438780800353877FAB5DAA5EA9C6
:10059C005F900009120057B40104D2AC8002C2ACC7
:1005AC00900007120057B40104D29C8002C29C90A8
:1005BC00000B12005754C0FFE5A2543F4FF5A29018
:1005CC00000C120057B4010543971080035397EFAA
:0205DC007F009E
:0105DE0022FA
:100D500074802533F582E43400F583EFF00533E544
:100D600033C394804003E4F533E5347005753401F2
:030D7000D29922F3
:1000260012003EFF600C120D50740129F9E43AFAF1
:0300360080EE2237
:03002300020AC707
:100AC700C0E0C083C082C0D075D000C00730982472
:100AD700C298E537701EE535C3948040037535002D
:100AE700AF35053574002FF582E43400F583E599B9
:100AF700F0753605309927C299E5326533601C7465
:100B0700802532F582E43400F583E0F5990532E576
:100B170032C3948040087532008003753400D007D3
:090B2700D0D0D082D083D0E0329E
:10077400EFD3940340037F012212003EFED394037F
:1007840040037F0222EF7041EE700B9000011200D3
:1007940057F45294529312003EB4010B900001128C
:1007A40000574294F4529312003EFEB4020A9000A1
:1007B4000112005742944293EEB4030D90000112CB
:1007C4000057FEF45294EE4293EF6401704312001A
:1007D4003EFE700B900001120057F452925291EEBB
:1007E400B4010B9000011200574292F4529112008E
:1007F4003EB4020A90000112005742924291120044
:100804003EB4030D900001120057FEF45292EE42E2
:1008140091EF6402704312003EFE700B90000112CF
:100824000057F452965295EEB4010B900001120059
:10083400574296F4529512003EB4020A90000112F7
:1008440000574296429512003EB4030D90000112E7
:100854000057FEF45296EE4295EF64037043120083
:100864003EFF700B900001120057F452B252B1EFE8
:10087400B4010B90000112005742B2F452B11200BD
:100884003EB4020A90000112005742B242B1120073
:100894003EB4030D900001120057FFF452B2EF4230
:0408A400B17F0022FE
:100E7100757701E4F576FB7A0079767F01020774D4
:060D7A00041C0000000053
:090E8F00D2A5C2A7C2B4C2A6227A
:100C9000530703EF25E0FF430701EFC43354E0FFA0
:100CA0007E03EF3392A7D2A5EF25E0FFC2A5DEF2C7
:100CB0007E08ED3392A7D2A5ED25E0FDC2A5DEF2B8
:0E0CC000C2B40000D2B40000C2A60000D2A64A
:010CCE002203
:03001E008F7A22B4
:090D8000016D00016E00016F001D
:0100210022BC
:100DEF0020B3037F012220B2037F022220A3037FBF
:0B0DFF00032220A2037F04227F0022B9
:100B9200E4FFFE120DEFE56D1460111460212402D2
:100BA2007049EF6046756D01F56E803FEFB56E0AD4
:100BB200756D02E56E44A0FE8031E4F56D802C0572
:100BC2006FEF7013E56FC39432500CE4F56DF56F5F
:100BD200E56E44D0FE8014EF7011E56FD39432407D
:0D0BE2000AE4F56DF56FE56E44B0FEAF0658
:010BEF0022E3
:100BF000754D08754C20E4F550F551F5547F0412FD
:100C0000028B754E42754F40E4F550755240F553D6
:100C10007F0112028B754E42754F80E4F55075527C
:100C200020F553FB7A00794C7F02120290754E42F8
:100C3000754F80E4F550755220F553FB7A00794CDE
:070C40007F03120290D2DED7
:010C4700228A
:100E0A00EF70038DFA22BF01038DFB22BF02038D0F
:080E1A00FC22BF03028DFD2242
:05028B00FB7A00794C34
:100290008B708A718972AD07EDD394044003020418
:1002A00045ED6404705AC2DEF5F9F5E9AB70AA7148
:1002B000A97212003EFFE5A254CF4FF5A2900001B3
:1002C000120057FFE5D954F14FF5D9900004120000
:1002D000575401FFE5D954FE4FF5D990000512009F
:1002E00057B40104D2BF8002C2BFAB70AA71A97219
:1002F00090000812005764016003020445D2DE2218
:10030000AB70E5722404F9E43571FA12003E543101
:10031000120084AB70AA71A972900002120057C338
:100320009448400FE92404F9E43AFA12003E54CF0D
:10033000120084ED7040AB70AA71A9729000041293
:100340000057FF900002120057FE4FF5DA900003AD
:10035000120057FFE5F2543F4FF5F29000061200ED
:10036000B8F50F85F00EC2008E0A850E16F51785BA
:1003700017EAE516F5FAED64017040AB70AA71A9B1
:1003800072900004120057FF900002120057FE4FB7
:10039000F5DB900003120057FFE5F3543F4FF5F3F0
:1003A0009000061200B8F51185F010C2018E0B8581
:1003B0001018F5198519EBE518F5FBED640270408E
:1003C000AB70AA71A972900004120057FF9000024E
:1003D000120057FE4FF5DC900003120057FFE5F4C2
:1003E000543F4FF5F49000061200B8F51385F01253
:1003F000C2028E0C85121AF51B851BECE51AF5FC62
:10040000ED64037040AB70AA71A9729000041200F1
:1004100057FF900002120057FE4FF5DD90000312C7
:100420000057FFE5F5543F4FF5F59000061200B870
:10043000F51585F014C2038E0D851408F50985099C
:06044000EDE508F5FD22C8
:03003B000208A810
:1008A800C0E0C0D075D000C004C005C006C0073085
:1008B800D839C2D8E50AC394484015E50F2517F57D
:1008C80017E50E3516F5168517EAE516F5FA801BB5
:1008D800E50A7017AFFAF5168F17E517FEADEA7C33
:1008E80000E42DF517EC3EF516D20030D939C2D9FF
:1008F800E50BC394484015E5112519F519E51035A0
:1009080018F5188519EBE518F5FB801BE50B701732
:10091800AFFBF5188F19E519FEADEB7C00E42DF55A
:1009280019EC3EF518D20130DA39C2DAE50CC39475
:10093800484015E513251BF51BE512351AF51A85F0
:100948001BECE51AF5FC801BE50C7017AFFCF51ADB
:100958008F1BE51BFEADEC7C00E42DF51BEC3EF592
:100968001AD20230DB39C2DBE50DC394484015E5E5
:10097800152509F509E5143508F5088509EDE50893
:10098800F5FD801BE50D7017AFFDF5088F09E5092A
:10099800FEADED7C00E42DF509EC3EF508D2033000
:1009A800DF02C2DFD007D006D005D004D0D0D0E017
:0109B800320C
:100CCF00D3EF9450EE941740047E177F50C3EF94E8
:100CDF0020EE940050047E007F20EF2490FDEE3430
:100CEF00E8FCC3E49FFFE49EC2AFF56B8F6C8C6989
:040CFF008D6AD2AF79
:010D030022CD
:100E4F00EF600714700B7D7A80027D16E4FF120CA1
:020E5F009022DF
:100B30008D7BEF14B408005058900B4775F003A458
:100B4000C58325F0C58373020B5F020B65020B6B37
:100B5000020B71020B78020B7E020B84020B8AAD32
:100B60007BE4FF8010AD7B7F01800AAD7B7F02803C
:100B700004AD7B7F03020E0AAD7BE4FF8010AD7BEA
:100B80007F01800AAD7B7F028004AD7B7F03120C66
:020B90009022B1
:100DB4004B6579322E2E2E0D0A004B6579332E2E7B
:0E0DC4002E0D0A004B6579342E2E2E0D0A00DE
:030D8900017300F3
:100C4800EF242E601C14602E146033240370387552
:100C5800590B755AB8AF5AAE59120CCFAF6A020D7C
:100C68005075590C755A1CAF5AAE59120CCF7BFFF0
:100C78007A0D79B4800E7BFF7A0D79BE80067BFFF2
:080C88007A0D79C81200262242
:100D2C007B007A007974120E39D3EF9405EE94009F
:100D3C004011120B928F73120C487B007A0079745D
:040D4C00120003226C
:030D8C00017C00E7
:0100220022BB
:0100390022A4
:01003A0022A3
:010E98002237
:010E99002236
:010E9A002235
:100D0400E57C602024FE60101460101460101460F0
:100D1400102404701202003902003A020E98020EE6
:080D240099020E9A120022222E
:040D8F0002780000E6
:100E2200120D94D2AF757802757958AF79AE7812F7
:070E32000CCF120D2C80FB18
:1009C500020E22E493A3F8E493A34003F68001F218
:1009D50008DFF48029E493A3F85407240CC8C33333
:1009E500C4540F4420C8834004F456800146F6DF02
:1009F500E4800B0102040810204080900D73E47E12
:100A0500019360BCA3FF543F30E509541FFEE493F6
:100A1500A360010ECF54C025E060A840B8E493A3BD
:100A2500FAE493A3F8E493A3C8C582C8CAC583CAE8
:100A3500F0A3C8C582C8CAC583CADFE9DEE780BEA0
:010D9300005F
:10003E00BB010689828A83E0225002E722BBFE02C0
:09004E00E32289828A83E49322F3
:10005700BB010CE58229F582E5833AF583E022505E
:1000670006E92582F8E622BBFE06E92582F8E222A8
:0D007700E58229F582E5833AF583E49322C2
:10008400BB010689828A83F0225002F722BBFE015B
:02009400F32255
:10009600F8BB010DE58229F582E5833AF583E8F0A0
:1000A600225006E92582C8F622BBFE05E92582C84C
:0200B600F22234
:1000B800BB0110E58229F582E5833AF583E0F5F086
:1000C800A3E0225009E92582F886F008E622BBFE63
:1000D8000AE92582F8E2F5F008E222E5832AF583A9
:0800E800E993F5F0A3E993226E
:1000F00075F008758200EF2FFFEE33FECD33CDCCC7
:1001000033CCC58233C5829BED9AEC99E582984049
:100110000CF582EE9BFEED9AFDEC99FC0FD5F0D626
:10012000E4CEFBE4CDFAE4CCF9A88222B800C1B950
:100130000059BA002DEC8BF084CFCECDFCE5F0CB8E
:10014000F97818EF2FFFEE33FEED33FDEC33FCEBC7
:1001500033FB10D703994004EB99FB0FD8E5E4F982
:10016000FA227818EF2FFFEE33FEED33FDEC33FC6F
:10017000C933C910D7059BE99A4007EC9BFCE99A63
:10018000F90FD8E0E4C9FAE4CCFB2275F010EF2FA8
:10019000FFEE33FEED33FDCC33CCC833C810D707A8
:1001A0009BEC9AE899400AED9BFDEC9AFCE899F8E3
:0E01B0000FD5F0DAE4CDFBE4CCFAE4C8F92276
:1001BE00EB9FF5F0EA9E42F0E99D42F0EC6480C8B8
:0601CE0064809845F02258
:1001D400EB9FF5F0EA9E42F0E99D42F0E89C45F081
:0101E40022F8
:1001E500E8600FECC313FCED13FDEE13FEEF13FFF8
:0301F500D8F1221C
:1001F800BB010DE58229F582E5833AF583020262A7
:100208005007E92582F8020255BBFE07E92582F866
:1002180002026EE58229F582E5833AF58302027BC4
:10022800EC8EF0A4CCC5F0CCCDF8EFA4CEC5F02D63
:10023800FDE43CFCE8A42EC8C5F03DFDE43CFCEF21
:0D024800A4FFE5F028FEE43DFDE43CFC22AF
:0D025500E6FB08E6F908E6FA08E6CBF82219
:0C026200E0F8A3E0F9A3E0FAA3E0FB221F
:0D026E00E2FB08E2F908E2FA08E2CBF82210
:10027B00E493F8740193F9740293FA740393FB22D9
:00000001FF
