:03000000020C22CD
:0C0C2200787FE4F6D8FD758177020C693C
:0F12F8007D1C7C08ED1D70011C144C70F7DFF19C
:0113070022C3
:0D131800EF75F005A4FE7FC81212F8DEF993
:0113250022A5
:0B103000016400025E0000026000008E
:03000B00020B8362
:100B8300C0E0C0F0C083C082C0D075D000C000C038
:0D0B930001C002C003C004C005C006C007B9
:100BA000055FE55F7002055EFFAE5EE4FCFD7B0A5B
:100BB000FAF9F8D31201BE5024755E00755F000586
:100BC00061E561700205600563E56370020562948A
:100BD00099E56294194006756200756300E56CB48E
:100BE0000125120F3FE56D14701DD3E5619464E596
:100BF00060940040120574E574D394084003757442
:070C00000075600075610042
:100C0700D007D006D005D004D003D002D001D00041
:0B0C1700D0D0D082D083D0F0D0E032EB
:03001B0002001AC6
:01001A0032B3
:10111D00752901752A01752B01752C01E4F52D75C5
:10112D002EFF752F1F753001FB7A007929FF020400
:01113D003081
:10043000AD07EDD3940240037F0122ED6003020477
:10044000C4C28C900002120057B40104D2A98002E9
:10045000C2A9900001120057B40104D2B98002C2AF
:10046000B912003EFED3940340037F0222E5895473
:10047000FC4EF589900003120057FFB40103538E20
:100480007FEF7003438E80EFB4020543890480033D
:100490005389FB900004120057B40105438F01807B
:1004A00003538FFE9000051200B8E5F0F58C900024
:1004B000051200B8F58A900007120057B40102D265
:1004C0008C7F0022ED6401600302054FC28E900014
:1004D00002120057B40104D2AB8002C2AB900001FB
:1004E000120057B40104D2BB8002C2BB12003EFE10
:1004F000C3940340037F0222E58954CF4EF58990CF
:100500000003120057FFB40103538EBFEF70034383
:100510008E40EFB4020543894080035389BF9000A9
:1005200004120057B40105438F028003538FFD90DE
:1005300000051200B8E5F0F58D9000051200B8F541
:100540008B900007120057B40102D28E7F0022ED7B
:1005500064027074538EEF900002120057B40105CC
:1005600043AF04800353AFFB900003120057FED348
:10057000940240037F0222EEB40103538EFB9000ED
:10058000031200577003438E04900003120057B407
:100590000205438E088003538EF790000412005723
:1005A000B40105438F048003538FFB9000051200B4
:1005B000B8FDACF0ECF5CD8DCC900007120057B42F
:0B05C0000103438E107F00227F022207
:0C000E00E563120084900001ED020096F2
:1012AC0012003EFFC3E5639FFFE5629400FE7C00E5
:0612BC007D0A120212225D
:08000300E4F562F563020084DC
:10076400EFD3940340037F012212003EFED394038F
:1007740040037F0222EF7041EE700B9000011200E3
:1007840057F45294529312003EB4010B900001129C
:1007940000574294F4529312003EFEB4020A9000B1
:1007A4000112005742944293EEB4030D90000112DB
:1007B4000057FEF45294EE4293EF6401704312002A
:1007C4003EFE700B900001120057F452925291EECB
:1007D400B4010B9000011200574292F4529112009E
:1007E4003EB4020A90000112005742924291120054
:1007F4003EB4030D900001120057FEF45292EE42F3
:1008040091EF6402704312003EFE700B90000112DF
:100814000057F452965295EEB4010B900001120069
:10082400574296F4529512003EB4020A9000011207
:1008340000574296429512003EB4030D90000112F7
:100844000057FEF45296EE4295EF64037043120093
:100854003EFF700B900001120057F452B252B1EFF8
:10086400B4010B90000112005742B2F452B11200CD
:100874003EB4020A90000112005742B242B1120083
:100884003EB4030D900001120057FFF452B2EF4240
:04089400B17F00220E
:1012E700E4F5917592FFF5957596FFF5B175B21016
:0112F70022D4
:06103B00041C000000008F
:09133000D2A5C2A7C2B4C2A622D4
:100F8400530703EF25E0FF430701EFC43354E0FFA9
:100F94007E03EF3392A7D2A5EF25E0FFC2A5DEF2D0
:100FA4007E08ED3392A7D2A5ED25E0FDC2A5DEF2C1
:100FB400C2B4000000D2B4000000C2A6000000D2F7
:010FC400A686
:010FC5002209
:091041000171000172000173004D
:01001E0022BF
:1012450020B3037F012220B2037F022220A3037F64
:0B125500032220A2037F04227F00225E
:100DE600E4FFFE121245E57114601114602124021D
:100DF6007049EF6046757101F572803FEFB5720A72
:100E0600757102E57244A0FE8031E4F571802C050F
:100E160073EF7013E573C39432500CE4F571F573F8
:100E2600E57244D0FE8014EF7011E573D39432401E
:0D0E36000AE4F571F573E57244B0FEAF06F5
:010E4300228C
:100E4400752208752120E4F525F526F5297F04127D
:100E54000275752342752440E4F525752740F5286D
:100E64007F01120275752342752480E4F5257527E8
:100E740020F528FB7A0079217F0212027A75234239
:100E8400752480E4F525752720F528FB7A0079215F
:070E94007F0312027AD2DE97
:010E9B002234
:10129400EF70038DFA22BF01038DFB22BF02038D81
:0812A400FC22BF03028DFD22B4
:05027500FB7A00792175
:10027A008B2A8A2B892CAD07EDD394044003020400
:10028A002FED6404705AC2DEF5F9F5E9AB2AAA2B00
:10029A00A92C12003EFFE5A254CF4FF5A29000010F
:1002AA00120057FFE5D954F14FF5D9900004120016
:1002BA00575401FFE5D954FE4FF5D99000051200B5
:1002CA0057B40104D2BF8002C2BFAB2AAA2BA92C01
:1002DA009000081200576401600302042FD2DE2244
:1002EA00AB2AE52C2404F9E4352BFA12003E5431EA
:1002FA00120084AB2AAA2BA92C900002120057C321
:10030A009448400FE92404F9E43AFA12003E54CF23
:10031A00120084ED7040AB2AAA2BA92C900004127B
:10032A000057FF900002120057FE4FF5DA900003C3
:10033A00120057FFE5F2543F4FF5F2900006120003
:10034A00B8F50F85F00EC2008E0A850E16F51785D0
:10035A0017EAE516F5FAED64017040AB2AAA2BA953
:10036A002C900004120057FF900002120057FE4F13
:10037A00F5DB900003120057FFE5F3543F4FF5F306
:10038A009000061200B8F51185F010C2018E0B8597
:10039A001018F5198519EBE518F5FBED64027040A4
:1003AA00AB2AAA2BA92C900004120057FF90000236
:1003BA00120057FE4FF5DC900003120057FFE5F4D8
:1003CA00543F4FF5F49000061200B8F51385F01269
:1003DA00C2028E0C85121AF51B851BECE51AF5FC78
:1003EA00ED64037040AB2AAA2BA92C9000041200DA
:1003FA0057FF900002120057FE4FF5DD90000312DE
:10040A000057FFE5F5543F4FF5F59000061200B886
:10041A00F51585F014C2038E0D851408F5098509B2
:06042A00EDE508F5FD22DE
:03003B0002089820
:10089800C0E0C0D075D000C004C005C006C0073095
:1008A800D839C2D8E50AC394484015E50F2517F58D
:1008B80017E50E3516F5168517EAE516F5FA801BC5
:1008C800E50A7017AFFAF5168F17E517FEADEA7C43
:1008D80000E42DF517EC3EF516D20030D939C2D90F
:1008E800E50BC394484015E5112519F519E51035B0
:1008F80018F5188519EBE518F5FB801BE50B701743
:10090800AFFBF5188F19E519FEADEB7C00E42DF56A
:1009180019EC3EF518D20130DA39C2DAE50CC39485
:10092800484015E513251BF51BE512351AF51A8500
:100938001BECE51AF5FC801BE50C7017AFFCF51AEB
:100948008F1BE51BFEADEC7C00E42DF51BEC3EF5A2
:100958001AD20230DB39C2DBE50DC394484015E5F5
:10096800152509F509E5143508F5088509EDE508A3
:10097800F5FD801BE50D7017AFFDF5088F09E5093A
:10098800FEADED7C00E42DF509EC3EF508D2033010
:10099800DF02C2DFD007D006D005D004D0D0D0E027
:0109A800321C
:100FC600D3EF942BEE944840047E487F2BC3EF94D6
:100FD600E1EE940050047E007FE1EF24F4FDEE3450
:100FE600B6FCC3E49FFFE49EC2AFF5548F558C5008
:040FF6008D51D2AF98
:010FFA0022D4
:100FFB00D3EF946FEE944540047E457F6FC3EF941F
:10100B00E1EE940050047E007FE1EF24B0FDEE345E
:10101B00B9FCC3E49FFFE49EC2AFF54E8F4F8C52D9
:04102B008D53D2AF60
:01102F00229E
:100E9C00E574B40900504C900EAAF8282873020E81
:100EAC00C5020ECA020ED0020ED6020EDC020EDCF9
:100EBC00020EDC020EE2020EE8E4FFFE80227F1836
:100ECC007E1D801C7F187E1D80167F8B7E0E8010F1
:100EDC007F067E0E800A7FC87E0080047F327E0AE9
:040EEC00120FC622F9
:0A132600120E9C7F287E23020FFBAD
:100026001212E712133012111D120E44D2AF121320
:040036002602130883
:10115D007546007545C27544017543007598DA757D
:0C116D008920758BF9758DF9D28ED2ACFB
:011179002253
:0605CB008B658A6689675A
:1005D100EF64016003020763753301F534F535F506
:1005E10036F537F538F5397F80900080E4F0A3DFE8
:1005F100FC7F80900000E4F0A3DFFCAB65AA66A954
:100601006712003ED394C040037F022290000A1279
:100611000057B40104D2BC8002C2BC12003EFFE507
:1006210098543F4FF598EF64C06008EF6440600351
:100631000206E89000021201E27F307EFF7D667CB7
:100641000012012C8F6B8E6A8D698C68E4FFFE7D30
:1006510001FCAB6BAA6AA969A868C31201BE400379
:100661007F0222C3E4956BF56BE4956AF56A740128
:100671009569F569E49568F568AB65AA66A967901F
:100681000001120057FB6401702CC28E538EFE5381
:1006910089BF5389CF438E40AF6BAE6AAD69AC68F9
:1006A10078081201CF8F8D856B8BC2AB5389BF53F5
:1006B1008FFDD28E8065EB64027029538EEF438EDD
:1006C10001538EF7438E04AF6BAE6AAD69AC6878A7
:1006D100081201CF8FCD856BCC53AFFB538EF743FF
:1006E1008E1080377F0222AB65AA66A96712003E91
:1006F100FF7013900008120057B40105438E20804B
:100701001A538EDF8015EFB4801190000812005744
:10071100B40105438780800353877FAB65AA66A92F
:1007210067900009120057B40104D2AC8002C2AC38
:10073100900007120057B40104D29C8002C29C9021
:10074100000B12005754C0FFE5A2543F4FF5A29091
:10075100000C120057B4010543971080035397EF23
:020761007F0017
:010763002273
:1010FA0074802535F582E43400F583EFF00535E593
:10110A0035C394804003E4F535E53670057536013C
:03111A00D2992245
:1012C20012003EFF600C1210FA740129F9E43AFA96
:0312D20080EE2289
:03002300020D1BB0
:100D1B00C0E0C083C082C0D075D000C0073098241B
:100D2B00C298E539701EE537C394804003753700D0
:100D3B00AF37053774002FF582E43400F583E5995E
:100D4B00F0753805309927C299E5346535601C7408
:100D5B00802534F582E43400F583E0F5990534E51C
:100D6B0034C3948040087534008003753600D00777
:090D7B00D0D0D082D083D0E03248
:100D84008D76EF14B408005058900D9B75F003A4B1
:100D9400C58325F0C58373020DB3020DB9020DBFDF
:100DA400020DC5020DCC020DD2020DD8020DDEAD2E
:100DB40076E4FF8010AD767F01800AAD767F0280F5
:100DC40004AD767F03021294AD76E4FF8010AD7615
:100DD4007F01800AAD767F028004AD767F03120F17
:020DE400842267
:09104A00016E00016C00016D0053
:100CAE00EF242E601E1460371460552403705DE52A
:100CBE006C640170570574121326E574D3940840C2
:100CCE004B8012E56C640170431574121326E574A3
:100CDE00C394015037E4F574121326E4F56C22E543
:100CEE006C70047F0180027F008F6CE56CB401078D
:100CFE0012113E75740122121308E4F56CF574227C
:0D0D0E00E56D70047F0180027F008F6D2273
:1010D6007B007A00796F1212ACD3EF9403EE940082
:1010E6004011120DE68F6E120CAE7B007A00796FFE
:0410F60012000322BF
:06105300017400017500AC
:10113E00D2A1D295D2B7D296C2977D917F031212C9
:0F114E00947DC77F021212947DF17F01021294EB
:10108800C2A1C295C2B7C296C297C290C291C2927B
:10109800C2937DFF7F031212947DFF7F0212129488
:0710A8007DFF7F010212949D
:10130800121088E4FDFF12127BE4FD7F0102127BBC
:1010AF00B293B290B291B292309308E554F58C8519
:1010BF00558A22E550F58C85518A0575E575D394CF
:0710CF00014003E4F5752266
:10117A00B293B290B291B292309308E554F58C854D
:0D118A00558A22E550F58C85518A057522A5
:10119700B293B290B291B292309308E554F58C8530
:0D11A700558A22E550F58C85518A05752288
:1011B400B293B290B291B292309308E554F58C8513
:0D11C400558A22E550F58C85518A0575226B
:1011D100B293B290B291B292309308E554F58C85F6
:0D11E100558A22E550F58C85518A0575224E
:1011EE00B293B290B291B292309308E554F58C85D9
:0D11FE00558A22E550F58C85518A05752231
:10120B00B293B290B291B292309308E554F58C85BB
:0D121B00558A22E550F58C85518A05752213
:10122800B293B290B291B292309308E554F58C859E
:0D123800558A22E550F58C85518A057522F6
:100F3F00E574B40900503D900F4DF8282873020F47
:100F4F0080020F68020F6B020F6E020F71020F7497
:100F5F00020F77020F7A020F7D0210AF02117A0291
:100F6F0011970211B40211D10211EE02120B0212EB
:050F7F002812130822F6
:10105D008F21E575D394014003E4F575E5756009BD
:10106D0014700DAD217F018004AD21E4FF12127BC0
:0B107D00E575D394024003E4F57522F2
:031059000177001C
:040EF000E4FD7F039B
:100EF4008F32EDB408005042900F03F82828730293
:100F04000F1B020F1F020F23020F27020F2B020FCA
:100F14002F020F33020F377D1D801A7D1380167D3B
:100F24001F80127D34800E7D35800A7D4680067DCB
:0B0F34004D80027D52AF32120F84226C
:10126000EF14600B14600C2402700F7D2D80067D3E
:0B1270004680027D55E4FF120F84222F
:1009A900EFB409004003020A9B9009B9F82828739B
:1009B9000209D40209EA020A04020A1D020A3602DD
:1009C9000A4F020A68020A81020A81E4FD7F0112C4
:1009D9000EF4E4FD7F02120EF4120EF0E4FF020A97
:1009E900987D057F01120EF47D057F02120EF47DBC
:1009F900057F03120EF47F01020A987D047F01121C
:100A09000EF47D047F02120EF47D047F03120EF4AE
:100A19007F01807B7D077F01120EF47D077F021223
:100A29000EF47D077F03120EF47F0180627D047F3F
:100A390001120EF47D067F02120EF47D067F031269
:100A49000EF47F0180497D067F01120EF47D047F3B
:100A590002120EF47D067F03120EF47F0180307DB1
:100A6900067F01120EF47D067F02120EF47D047FCB
:100A790003120EF47F0180177D067F01120EF47DAB
:100A8900067F02120EF47D067F03120EF47F021216
:030A9900126022C6
:100A9C00EFB409004003020B82900AACF8282873CB
:100AAC00020AC7020ADD020AF7020B10020B290226
:100ABC000B3E020B53020B6C020B6CE4FD7F01121C
:100ACC000EF4E4FD7F02120EF4120EF0E4FF020BA2
:100ADC007F7D027F01120EF47D027F02120EF47DE7
:100AEC00027F03120EF47F01020B7F7D037F011244
:100AFC000EF47D037F02120EF47D037F03120EF4BD
:100B0C007F01806F7D017F01120EF47D017F021247
:100B1C000EF47D017F03120EF47F0180567D037F5E
:100B2C0001120EF4E4FD7F02120EF4120EF07F019E
:100B3C008041E4FD7F01120EF47D037F02120EF45E
:100B4C00120EF07F01802C7D017F01120EF47D01CD
:100B5C007F02120EF47D037F03120EF47F018013CB
:100B6C00E4FD7F01120EF4E4FD7F02120EF4120E6E
:070B7C00F07F02121260225B
:10127B008D31EF14600B04700FAF31120A9C7F009D
:09128B0022AF311209A97F0122F2
:1012D5001200261210D6E56CB401F8AF7412105D39
:0212E50080F196
:100C2E000212D5E493A3F8E493A34003F68001F2F5
:100C3E0008DFF48029E493A3F85407240CC8C333C7
:100C4E00C4540F4420C8834004F456800146F6DF96
:100C5E00E4800B0102040810204080901030E47EE6
:100C6E00019360BCA3FF543F30E509541FFEE4938B
:100C7E00A360010ECF54C025E060A840B8E493A352
:100C8E00FAE493A3F8E493A3C8C582C8CAC583CA7D
:100C9E00F0A3C8C582C8CAC583CADFE9DEE780BE35
:01105C000093
:10003E00BB010689828A83E0225002E722BBFE02C0
:09004E00E32289828A83E49322F3
:10005700BB010CE58229F582E5833AF583E022505E
:1000670006E92582F8E622BBFE06E92582F8E222A8
:0D007700E58229F582E5833AF583E49322C2
:10008400BB010689828A83F0225002F722BBFE015B
:02009400F32255
:10009600F8BB010DE58229F582E5833AF583E8F0A0
:1000A600225006E92582C8F622BBFE05E92582C84C
:0200B600F22234
:1000B800BB0110E58229F582E5833AF583E0F5F086
:1000C800A3E0225009E92582F886F008E622BBFE63
:1000D8000AE92582F8E2F5F008E222E5832AF583A9
:0800E800E993F5F0A3E993226E
:1000F00075F008758200EF2FFFEE33FECD33CDCCC7
:1001000033CCC58233C5829BED9AEC99E582984049
:100110000CF582EE9BFEED9AFDEC99FC0FD5F0D626
:10012000E4CEFBE4CDFAE4CCF9A88222B800C1B950
:100130000059BA002DEC8BF084CFCECDFCE5F0CB8E
:10014000F97818EF2FFFEE33FEED33FDEC33FCEBC7
:1001500033FB10D703994004EB99FB0FD8E5E4F982
:10016000FA227818EF2FFFEE33FEED33FDEC33FC6F
:10017000C933C910D7059BE99A4007EC9BFCE99A63
:10018000F90FD8E0E4C9FAE4CCFB2275F010EF2FA8
:10019000FFEE33FEED33FDCC33CCC833C810D707A8
:1001A0009BEC9AE899400AED9BFDEC9AFCE899F8E3
:0E01B0000FD5F0DAE4CDFBE4CCFAE4C8F92276
:1001BE00EB9FF5F0EA9E42F0E99D42F0E89C45F097
:0101CE00220E
:1001CF00E8600FECC313FCED13FDEE13FEEF13FF0E
:0301DF00D8F12232
:1001E200BB010DE58229F582E5833AF58302024CD3
:1001F2005007E92582F802023FBBFE07E92582F893
:10020200020258E58229F582E5833AF58302026506
:10021200EC8EF0A4CCC5F0CCCDF8EFA4CEC5F02D79
:10022200FDE43CFCE8A42EC8C5F03DFDE43CFCEF37
:0D023200A4FFE5F028FEE43DFDE43CFC22C5
:0D023F00E6FB08E6F908E6FA08E6CBF8222F
:0C024C00E0F8A3E0F9A3E0FAA3E0FB2235
:0D025800E2FB08E2F908E2FA08E2CBF82226
:10026500E493F8740193F9740293FA740393FB22EF
:00000001FF
